{
  "contractName": "AuthentiumToken",
  "abi": [
    {
      "inputs": [
        {
          "internalType": "uint256",
          "name": "initialSupply",
          "type": "uint256"
        }
      ],
      "stateMutability": "nonpayable",
      "type": "constructor"
    },
    {
      "anonymous": false,
      "inputs": [
        {
          "indexed": true,
          "internalType": "address",
          "name": "owner",
          "type": "address"
        },
        {
          "indexed": true,
          "internalType": "address",
          "name": "spender",
          "type": "address"
        },
        {
          "indexed": false,
          "internalType": "uint256",
          "name": "value",
          "type": "uint256"
        }
      ],
      "name": "Approval",
      "type": "event"
    },
    {
      "anonymous": false,
      "inputs": [
        {
          "indexed": true,
          "internalType": "address",
          "name": "from",
          "type": "address"
        },
        {
          "indexed": false,
          "internalType": "uint256",
          "name": "value",
          "type": "uint256"
        }
      ],
      "name": "Deposit",
      "type": "event"
    },
    {
      "anonymous": false,
      "inputs": [
        {
          "indexed": true,
          "internalType": "address",
          "name": "from",
          "type": "address"
        },
        {
          "indexed": true,
          "internalType": "address",
          "name": "to",
          "type": "address"
        },
        {
          "indexed": false,
          "internalType": "uint256",
          "name": "value",
          "type": "uint256"
        }
      ],
      "name": "Transfer",
      "type": "event"
    },
    {
      "anonymous": false,
      "inputs": [
        {
          "indexed": true,
          "internalType": "address",
          "name": "to",
          "type": "address"
        },
        {
          "indexed": false,
          "internalType": "uint256",
          "name": "value",
          "type": "uint256"
        }
      ],
      "name": "Withdraw",
      "type": "event"
    },
    {
      "inputs": [
        {
          "internalType": "address",
          "name": "owner",
          "type": "address"
        },
        {
          "internalType": "address",
          "name": "spender",
          "type": "address"
        }
      ],
      "name": "allowance",
      "outputs": [
        {
          "internalType": "uint256",
          "name": "",
          "type": "uint256"
        }
      ],
      "stateMutability": "view",
      "type": "function",
      "constant": true
    },
    {
      "inputs": [
        {
          "internalType": "address",
          "name": "spender",
          "type": "address"
        },
        {
          "internalType": "uint256",
          "name": "amount",
          "type": "uint256"
        }
      ],
      "name": "approve",
      "outputs": [
        {
          "internalType": "bool",
          "name": "",
          "type": "bool"
        }
      ],
      "stateMutability": "nonpayable",
      "type": "function"
    },
    {
      "inputs": [
        {
          "internalType": "address",
          "name": "account",
          "type": "address"
        }
      ],
      "name": "balanceOf",
      "outputs": [
        {
          "internalType": "uint256",
          "name": "",
          "type": "uint256"
        }
      ],
      "stateMutability": "view",
      "type": "function",
      "constant": true
    },
    {
      "inputs": [
        {
          "internalType": "address",
          "name": "spender",
          "type": "address"
        },
        {
          "internalType": "uint256",
          "name": "subtractedValue",
          "type": "uint256"
        }
      ],
      "name": "decreaseAllowance",
      "outputs": [
        {
          "internalType": "bool",
          "name": "",
          "type": "bool"
        }
      ],
      "stateMutability": "nonpayable",
      "type": "function"
    },
    {
      "inputs": [
        {
          "internalType": "address",
          "name": "spender",
          "type": "address"
        },
        {
          "internalType": "uint256",
          "name": "addedValue",
          "type": "uint256"
        }
      ],
      "name": "increaseAllowance",
      "outputs": [
        {
          "internalType": "bool",
          "name": "",
          "type": "bool"
        }
      ],
      "stateMutability": "nonpayable",
      "type": "function"
    },
    {
      "inputs": [],
      "name": "name",
      "outputs": [
        {
          "internalType": "string",
          "name": "",
          "type": "string"
        }
      ],
      "stateMutability": "view",
      "type": "function",
      "constant": true
    },
    {
      "inputs": [],
      "name": "poolBalance",
      "outputs": [
        {
          "internalType": "uint256",
          "name": "",
          "type": "uint256"
        }
      ],
      "stateMutability": "view",
      "type": "function",
      "constant": true
    },
    {
      "inputs": [],
      "name": "symbol",
      "outputs": [
        {
          "internalType": "string",
          "name": "",
          "type": "string"
        }
      ],
      "stateMutability": "view",
      "type": "function",
      "constant": true
    },
    {
      "inputs": [],
      "name": "totalSupply",
      "outputs": [
        {
          "internalType": "uint256",
          "name": "",
          "type": "uint256"
        }
      ],
      "stateMutability": "view",
      "type": "function",
      "constant": true
    },
    {
      "inputs": [
        {
          "internalType": "address",
          "name": "recipient",
          "type": "address"
        },
        {
          "internalType": "uint256",
          "name": "amount",
          "type": "uint256"
        }
      ],
      "name": "transfer",
      "outputs": [
        {
          "internalType": "bool",
          "name": "",
          "type": "bool"
        }
      ],
      "stateMutability": "nonpayable",
      "type": "function"
    },
    {
      "inputs": [
        {
          "internalType": "address",
          "name": "sender",
          "type": "address"
        },
        {
          "internalType": "address",
          "name": "recipient",
          "type": "address"
        },
        {
          "internalType": "uint256",
          "name": "amount",
          "type": "uint256"
        }
      ],
      "name": "transferFrom",
      "outputs": [
        {
          "internalType": "bool",
          "name": "",
          "type": "bool"
        }
      ],
      "stateMutability": "nonpayable",
      "type": "function"
    },
    {
      "inputs": [],
      "name": "decimals",
      "outputs": [
        {
          "internalType": "uint8",
          "name": "",
          "type": "uint8"
        }
      ],
      "stateMutability": "pure",
      "type": "function",
      "constant": true
    },
    {
      "inputs": [],
      "name": "getThePrice",
      "outputs": [
        {
          "internalType": "int256",
          "name": "",
          "type": "int256"
        }
      ],
      "stateMutability": "view",
      "type": "function",
      "constant": true
    },
    {
      "inputs": [],
      "name": "deposit",
      "outputs": [],
      "stateMutability": "payable",
      "type": "function",
      "payable": true
    },
    {
      "inputs": [],
      "name": "withdraw",
      "outputs": [],
      "stateMutability": "nonpayable",
      "type": "function"
    }
  ],
  "bytecode": "0x60806040523480156200001157600080fd5b5060405162002586380380620025868339818101604052810190620000379190620003e7565b6040518060400160405280600f81526020017f41757468656e7469756d546f6b656e00000000000000000000000000000000008152506040518060400160405280600381526020017f41555400000000000000000000000000000000000000000000000000000000008152508160039080519060200190620000bb92919062000320565b508060049080519060200190620000d492919062000320565b505050620000e933826200019560201b60201c565b739326bfa02add2366b30bacb125260af641031331600560006101000a81548173ffffffffffffffffffffffffffffffffffffffff021916908373ffffffffffffffffffffffffffffffffffffffff1602179055506200014e6200030e60201b60201c565b600760006101000a81548173ffffffffffffffffffffffffffffffffffffffff021916908373ffffffffffffffffffffffffffffffffffffffff16021790555050620005cb565b600073ffffffffffffffffffffffffffffffffffffffff168273ffffffffffffffffffffffffffffffffffffffff16141562000208576040517f08c379a0000000000000000000000000000000000000000000000000000000008152600401620001ff9062000466565b60405180910390fd5b6200021c600083836200031660201b60201c565b8060026000828254620002309190620004b6565b92505081905550806000808473ffffffffffffffffffffffffffffffffffffffff1673ffffffffffffffffffffffffffffffffffffffff1681526020019081526020016000206000828254620002879190620004b6565b925050819055508173ffffffffffffffffffffffffffffffffffffffff16600073ffffffffffffffffffffffffffffffffffffffff167fddf252ad1be2c89b69c2b068fc378daa952ba7f163c4a11628f55a4df523b3ef83604051620002ee919062000488565b60405180910390a36200030a600083836200031b60201b60201c565b5050565b600033905090565b505050565b505050565b8280546200032e906200051d565b90600052602060002090601f0160209004810192826200035257600085556200039e565b82601f106200036d57805160ff19168380011785556200039e565b828001600101855582156200039e579182015b828111156200039d57825182559160200191906001019062000380565b5b509050620003ad9190620003b1565b5090565b5b80821115620003cc576000816000905550600101620003b2565b5090565b600081519050620003e181620005b1565b92915050565b600060208284031215620003fa57600080fd5b60006200040a84828501620003d0565b91505092915050565b600062000422601f83620004a5565b91507f45524332303a206d696e7420746f20746865207a65726f2061646472657373006000830152602082019050919050565b620004608162000513565b82525050565b60006020820190508181036000830152620004818162000413565b9050919050565b60006020820190506200049f600083018462000455565b92915050565b600082825260208201905092915050565b6000620004c38262000513565b9150620004d08362000513565b9250827fffffffffffffffffffffffffffffffffffffffffffffffffffffffffffffffff0382111562000508576200050762000553565b5b828201905092915050565b6000819050919050565b600060028204905060018216806200053657607f821691505b602082108114156200054d576200054c62000582565b5b50919050565b7f4e487b7100000000000000000000000000000000000000000000000000000000600052601160045260246000fd5b7f4e487b7100000000000000000000000000000000000000000000000000000000600052602260045260246000fd5b620005bc8162000513565b8114620005c857600080fd5b50565b611fab80620005db6000396000f3fe6080604052600436106100e85760003560e01c806370a082311161008a578063a457c2d711610059578063a457c2d7146102fa578063a9059cbb14610337578063d0e30db014610374578063dd62ed3e1461037e576100e8565b806370a082311461023c5780638c3c9a551461027957806395d89b41146102a457806396365d44146102cf576100e8565b806323b872dd116100c657806323b872dd14610180578063313ce567146101bd57806339509351146101e85780633ccfd60b14610225576100e8565b806306fdde03146100ed578063095ea7b31461011857806318160ddd14610155575b600080fd5b3480156100f957600080fd5b506101026103bb565b60405161010f9190611a8d565b60405180910390f35b34801561012457600080fd5b5061013f600480360381019061013a91906114aa565b61044d565b60405161014c9190611a57565b60405180910390f35b34801561016157600080fd5b5061016a61046b565b6040516101779190611c2f565b60405180910390f35b34801561018c57600080fd5b506101a760048036038101906101a2919061145b565b610475565b6040516101b49190611a57565b60405180910390f35b3480156101c957600080fd5b506101d261056d565b6040516101df9190611c4a565b60405180910390f35b3480156101f457600080fd5b5061020f600480360381019061020a91906114aa565b610576565b60405161021c9190611a57565b60405180910390f35b34801561023157600080fd5b5061023a610622565b005b34801561024857600080fd5b50610263600480360381019061025e91906113f6565b6107bd565b6040516102709190611c2f565b60405180910390f35b34801561028557600080fd5b5061028e610805565b60405161029b9190611a72565b60405180910390f35b3480156102b057600080fd5b506102b96108b5565b6040516102c69190611a8d565b60405180910390f35b3480156102db57600080fd5b506102e4610947565b6040516102f19190611c2f565b60405180910390f35b34801561030657600080fd5b50610321600480360381019061031c91906114aa565b61094d565b60405161032e9190611a57565b60405180910390f35b34801561034357600080fd5b5061035e600480360381019061035991906114aa565b610a38565b60405161036b9190611a57565b60405180910390f35b61037c610a56565b005b34801561038a57600080fd5b506103a560048036038101906103a0919061141f565b610b71565b6040516103b29190611c2f565b60405180910390f35b6060600380546103ca90611e49565b80601f01602080910402602001604051908101604052809291908181526020018280546103f690611e49565b80156104435780601f1061041857610100808354040283529160200191610443565b820191906000526020600020905b81548152906001019060200180831161042657829003601f168201915b5050505050905090565b600061046161045a610bf8565b8484610c00565b6001905092915050565b6000600254905090565b6000610482848484610dcb565b6000600160008673ffffffffffffffffffffffffffffffffffffffff1673ffffffffffffffffffffffffffffffffffffffff16815260200190815260200160002060006104cd610bf8565b73ffffffffffffffffffffffffffffffffffffffff1673ffffffffffffffffffffffffffffffffffffffff1681526020019081526020016000205490508281101561054d576040517f08c379a000000000000000000000000000000000000000000000000000000000815260040161054490611b4f565b60405180910390fd5b61056185610559610bf8565b858403610c00565b60019150509392505050565b60006005905090565b6000610618610583610bf8565b848460016000610591610bf8565b73ffffffffffffffffffffffffffffffffffffffff1673ffffffffffffffffffffffffffffffffffffffff16815260200190815260200160002060008873ffffffffffffffffffffffffffffffffffffffff1673ffffffffffffffffffffffffffffffffffffffff168152602001908152602001600020546106139190611c8c565b610c00565b6001905092915050565b600061063461062f610bf8565b6107bd565b9050600061064061046b565b60065461064d9190611ce2565b826106589190611d13565b905061066b610665610bf8565b8361104c565b6000610675610bf8565b73ffffffffffffffffffffffffffffffffffffffff168260405161069890611a42565b60006040518083038185875af1925050503d80600081146106d5576040519150601f19603f3d011682016040523d82523d6000602084013e6106da565b606091505b505090508061071e576040517f08c379a000000000000000000000000000000000000000000000000000000000815260040161071590611b2f565b60405180910390fd5b81600660008282546107309190611d6d565b92505081905550610763600760009054906101000a900473ffffffffffffffffffffffffffffffffffffffff1684611223565b61076b610bf8565b73ffffffffffffffffffffffffffffffffffffffff167f884edad9ce6fa2440d8a54cc123490eb96d2768479d49ff9c7366125a9424364836040516107b09190611c2f565b60405180910390a2505050565b60008060008373ffffffffffffffffffffffffffffffffffffffff1673ffffffffffffffffffffffffffffffffffffffff168152602001908152602001600020549050919050565b600080600560009054906101000a900473ffffffffffffffffffffffffffffffffffffffff1673ffffffffffffffffffffffffffffffffffffffff1663feaf968c6040518163ffffffff1660e01b815260040160a06040518083038186803b15801561087057600080fd5b505afa158015610884573d6000803e3d6000fd5b505050506040513d601f19601f820116820180604052508101906108a891906114e6565b5050509150508091505090565b6060600480546108c490611e49565b80601f01602080910402602001604051908101604052809291908181526020018280546108f090611e49565b801561093d5780601f106109125761010080835404028352916020019161093d565b820191906000526020600020905b81548152906001019060200180831161092057829003601f168201915b5050505050905090565b60065481565b6000806001600061095c610bf8565b73ffffffffffffffffffffffffffffffffffffffff1673ffffffffffffffffffffffffffffffffffffffff16815260200190815260200160002060008573ffffffffffffffffffffffffffffffffffffffff1673ffffffffffffffffffffffffffffffffffffffff16815260200190815260200160002054905082811015610a19576040517f08c379a0000000000000000000000000000000000000000000000000000000008152600401610a1090611bef565b60405180910390fd5b610a2d610a24610bf8565b85858403610c00565b600191505092915050565b6000610a4c610a45610bf8565b8484610dcb565b6001905092915050565b6000610a60610805565b905060008113610aa5576040517f08c379a0000000000000000000000000000000000000000000000000000000008152600401610a9c90611bcf565b60405180910390fd5b60006103e88234610ab69190611ce2565b610ac09190611d13565b9050610aee600760009054906101000a900473ffffffffffffffffffffffffffffffffffffffff168261104c565b3460066000828254610b009190611c8c565b92505081905550610b18610b12610bf8565b82611223565b610b20610bf8565b73ffffffffffffffffffffffffffffffffffffffff167fe1fffcc4923d04b559f4d29a8bfc6cda04eb5b0d3c460751c2402c5c5cc9109c34604051610b659190611c2f565b60405180910390a25050565b6000600160008473ffffffffffffffffffffffffffffffffffffffff1673ffffffffffffffffffffffffffffffffffffffff16815260200190815260200160002060008373ffffffffffffffffffffffffffffffffffffffff1673ffffffffffffffffffffffffffffffffffffffff16815260200190815260200160002054905092915050565b600033905090565b600073ffffffffffffffffffffffffffffffffffffffff168373ffffffffffffffffffffffffffffffffffffffff161415610c70576040517f08c379a0000000000000000000000000000000000000000000000000000000008152600401610c6790611baf565b60405180910390fd5b600073ffffffffffffffffffffffffffffffffffffffff168273ffffffffffffffffffffffffffffffffffffffff161415610ce0576040517f08c379a0000000000000000000000000000000000000000000000000000000008152600401610cd790611aef565b60405180910390fd5b80600160008573ffffffffffffffffffffffffffffffffffffffff1673ffffffffffffffffffffffffffffffffffffffff16815260200190815260200160002060008473ffffffffffffffffffffffffffffffffffffffff1673ffffffffffffffffffffffffffffffffffffffff168152602001908152602001600020819055508173ffffffffffffffffffffffffffffffffffffffff168373ffffffffffffffffffffffffffffffffffffffff167f8c5be1e5ebec7d5bd14f71427d1e84f3dd0314c0f7b2291e5b200ac8c7c3b92583604051610dbe9190611c2f565b60405180910390a3505050565b600073ffffffffffffffffffffffffffffffffffffffff168373ffffffffffffffffffffffffffffffffffffffff161415610e3b576040517f08c379a0000000000000000000000000000000000000000000000000000000008152600401610e3290611b8f565b60405180910390fd5b600073ffffffffffffffffffffffffffffffffffffffff168273ffffffffffffffffffffffffffffffffffffffff161415610eab576040517f08c379a0000000000000000000000000000000000000000000000000000000008152600401610ea290611aaf565b60405180910390fd5b610eb6838383611383565b60008060008573ffffffffffffffffffffffffffffffffffffffff1673ffffffffffffffffffffffffffffffffffffffff16815260200190815260200160002054905081811015610f3c576040517f08c379a0000000000000000000000000000000000000000000000000000000008152600401610f3390611b0f565b60405180910390fd5b8181036000808673ffffffffffffffffffffffffffffffffffffffff1673ffffffffffffffffffffffffffffffffffffffff16815260200190815260200160002081905550816000808573ffffffffffffffffffffffffffffffffffffffff1673ffffffffffffffffffffffffffffffffffffffff1681526020019081526020016000206000828254610fcf9190611c8c565b925050819055508273ffffffffffffffffffffffffffffffffffffffff168473ffffffffffffffffffffffffffffffffffffffff167fddf252ad1be2c89b69c2b068fc378daa952ba7f163c4a11628f55a4df523b3ef846040516110339190611c2f565b60405180910390a3611046848484611388565b50505050565b600073ffffffffffffffffffffffffffffffffffffffff168273ffffffffffffffffffffffffffffffffffffffff1614156110bc576040517f08c379a00000000000000000000000000000000000000000000000000000000081526004016110b390611b6f565b60405180910390fd5b6110c882600083611383565b60008060008473ffffffffffffffffffffffffffffffffffffffff1673ffffffffffffffffffffffffffffffffffffffff1681526020019081526020016000205490508181101561114e576040517f08c379a000000000000000000000000000000000000000000000000000000000815260040161114590611acf565b60405180910390fd5b8181036000808573ffffffffffffffffffffffffffffffffffffffff1673ffffffffffffffffffffffffffffffffffffffff1681526020019081526020016000208190555081600260008282546111a59190611d6d565b92505081905550600073ffffffffffffffffffffffffffffffffffffffff168373ffffffffffffffffffffffffffffffffffffffff167fddf252ad1be2c89b69c2b068fc378daa952ba7f163c4a11628f55a4df523b3ef8460405161120a9190611c2f565b60405180910390a361121e83600084611388565b505050565b600073ffffffffffffffffffffffffffffffffffffffff168273ffffffffffffffffffffffffffffffffffffffff161415611293576040517f08c379a000000000000000000000000000000000000000000000000000000000815260040161128a90611c0f565b60405180910390fd5b61129f60008383611383565b80600260008282546112b19190611c8c565b92505081905550806000808473ffffffffffffffffffffffffffffffffffffffff1673ffffffffffffffffffffffffffffffffffffffff16815260200190815260200160002060008282546113069190611c8c565b925050819055508173ffffffffffffffffffffffffffffffffffffffff16600073ffffffffffffffffffffffffffffffffffffffff167fddf252ad1be2c89b69c2b068fc378daa952ba7f163c4a11628f55a4df523b3ef8360405161136b9190611c2f565b60405180910390a361137f60008383611388565b5050565b505050565b505050565b60008135905061139c81611f19565b92915050565b6000815190506113b181611f30565b92915050565b6000813590506113c681611f47565b92915050565b6000815190506113db81611f47565b92915050565b6000815190506113f081611f5e565b92915050565b60006020828403121561140857600080fd5b60006114168482850161138d565b91505092915050565b6000806040838503121561143257600080fd5b60006114408582860161138d565b92505060206114518582860161138d565b9150509250929050565b60008060006060848603121561147057600080fd5b600061147e8682870161138d565b935050602061148f8682870161138d565b92505060406114a0868287016113b7565b9150509250925092565b600080604083850312156114bd57600080fd5b60006114cb8582860161138d565b92505060206114dc858286016113b7565b9150509250929050565b600080600080600060a086880312156114fe57600080fd5b600061150c888289016113e1565b955050602061151d888289016113a2565b945050604061152e888289016113cc565b935050606061153f888289016113cc565b9250506080611550888289016113e1565b9150509295509295909350565b61156681611db3565b82525050565b61157581611dbf565b82525050565b600061158682611c65565b6115908185611c7b565b93506115a0818560208601611e16565b6115a981611f08565b840191505092915050565b60006115c1602383611c7b565b91507f45524332303a207472616e7366657220746f20746865207a65726f206164647260008301527f65737300000000000000000000000000000000000000000000000000000000006020830152604082019050919050565b6000611627602283611c7b565b91507f45524332303a206275726e20616d6f756e7420657863656564732062616c616e60008301527f63650000000000000000000000000000000000000000000000000000000000006020830152604082019050919050565b600061168d602283611c7b565b91507f45524332303a20617070726f766520746f20746865207a65726f20616464726560008301527f73730000000000000000000000000000000000000000000000000000000000006020830152604082019050919050565b60006116f3602683611c7b565b91507f45524332303a207472616e7366657220616d6f756e742065786365656473206260008301527f616c616e636500000000000000000000000000000000000000000000000000006020830152604082019050919050565b6000611759601483611c7b565b91507f4661696c656420746f2073656e642045746865720000000000000000000000006000830152602082019050919050565b6000611799602883611c7b565b91507f45524332303a207472616e7366657220616d6f756e742065786365656473206160008301527f6c6c6f77616e63650000000000000000000000000000000000000000000000006020830152604082019050919050565b60006117ff602183611c7b565b91507f45524332303a206275726e2066726f6d20746865207a65726f2061646472657360008301527f73000000000000000000000000000000000000000000000000000000000000006020830152604082019050919050565b6000611865602583611c7b565b91507f45524332303a207472616e736665722066726f6d20746865207a65726f20616460008301527f64726573730000000000000000000000000000000000000000000000000000006020830152604082019050919050565b60006118cb600083611c70565b9150600082019050919050565b60006118e5602483611c7b565b91507f45524332303a20617070726f76652066726f6d20746865207a65726f2061646460008301527f72657373000000000000000000000000000000000000000000000000000000006020830152604082019050919050565b600061194b601983611c7b565b91507f546865207072696365206973206e6f74206e65676174697665000000000000006000830152602082019050919050565b600061198b602583611c7b565b91507f45524332303a2064656372656173656420616c6c6f77616e63652062656c6f7760008301527f207a65726f0000000000000000000000000000000000000000000000000000006020830152604082019050919050565b60006119f1601f83611c7b565b91507f45524332303a206d696e7420746f20746865207a65726f2061646472657373006000830152602082019050919050565b611a2d81611de9565b82525050565b611a3c81611df3565b82525050565b6000611a4d826118be565b9150819050919050565b6000602082019050611a6c600083018461155d565b92915050565b6000602082019050611a87600083018461156c565b92915050565b60006020820190508181036000830152611aa7818461157b565b905092915050565b60006020820190508181036000830152611ac8816115b4565b9050919050565b60006020820190508181036000830152611ae88161161a565b9050919050565b60006020820190508181036000830152611b0881611680565b9050919050565b60006020820190508181036000830152611b28816116e6565b9050919050565b60006020820190508181036000830152611b488161174c565b9050919050565b60006020820190508181036000830152611b688161178c565b9050919050565b60006020820190508181036000830152611b88816117f2565b9050919050565b60006020820190508181036000830152611ba881611858565b9050919050565b60006020820190508181036000830152611bc8816118d8565b9050919050565b60006020820190508181036000830152611be88161193e565b9050919050565b60006020820190508181036000830152611c088161197e565b9050919050565b60006020820190508181036000830152611c28816119e4565b9050919050565b6000602082019050611c446000830184611a24565b92915050565b6000602082019050611c5f6000830184611a33565b92915050565b600081519050919050565b600081905092915050565b600082825260208201905092915050565b6000611c9782611de9565b9150611ca283611de9565b9250827fffffffffffffffffffffffffffffffffffffffffffffffffffffffffffffffff03821115611cd757611cd6611e7b565b5b828201905092915050565b6000611ced82611de9565b9150611cf883611de9565b925082611d0857611d07611eaa565b5b828204905092915050565b6000611d1e82611de9565b9150611d2983611de9565b9250817fffffffffffffffffffffffffffffffffffffffffffffffffffffffffffffffff0483118215151615611d6257611d61611e7b565b5b828202905092915050565b6000611d7882611de9565b9150611d8383611de9565b925082821015611d9657611d95611e7b565b5b828203905092915050565b6000611dac82611dc9565b9050919050565b60008115159050919050565b6000819050919050565b600073ffffffffffffffffffffffffffffffffffffffff82169050919050565b6000819050919050565b600060ff82169050919050565b600069ffffffffffffffffffff82169050919050565b60005b83811015611e34578082015181840152602081019050611e19565b83811115611e43576000848401525b50505050565b60006002820490506001821680611e6157607f821691505b60208210811415611e7557611e74611ed9565b5b50919050565b7f4e487b7100000000000000000000000000000000000000000000000000000000600052601160045260246000fd5b7f4e487b7100000000000000000000000000000000000000000000000000000000600052601260045260246000fd5b7f4e487b7100000000000000000000000000000000000000000000000000000000600052602260045260246000fd5b6000601f19601f8301169050919050565b611f2281611da1565b8114611f2d57600080fd5b50565b611f3981611dbf565b8114611f4457600080fd5b50565b611f5081611de9565b8114611f5b57600080fd5b50565b611f6781611e00565b8114611f7257600080fd5b5056fea26469706673582212200877d346c6946c5b0a09c881e5497cca23ffc95097283c07f340b7ab6718e37164736f6c63430008000033",
  "immutableReferences": {},
  "source": "// contracts/GLDToken.sol\n// SPDX-License-Identifier: MIT\npragma solidity ^0.8.0;\n\nimport \"@openzeppelin/contracts/token/ERC20/ERC20.sol\";\nimport \"@chainlink/contracts/src/v0.8/interfaces/AggregatorV3Interface.sol\";\n\ncontract AuthentiumToken is ERC20 {\n\n    AggregatorV3Interface internal priceFeed;\n    uint256 public poolBalance;\n    address admin;\n\n    /**\n     * Network: Kovan\n     * Aggregator: ETH/USD\n     * Address: 0x9326BFA02ADD2366b30bacB125260Af641031331\n     */\n    constructor(uint256 initialSupply) ERC20(\"AuthentiumToken\", \"AUT\") {\n        _mint(msg.sender, initialSupply);\n        priceFeed = AggregatorV3Interface(0x9326BFA02ADD2366b30bacB125260Af641031331);\n        admin = _msgSender();\n    }\n\n    /**\n     * @dev Returns the number of decimals used to get its user representation.\n     * For example, if `decimals` equals `2`, a balance of `505` tokens should\n     * be displayed to a user as `5.05` (`505 / 10 ** 2`).\n     */\n    function decimals() public pure override returns (uint8) {\n        return 5;\n    }\n\n    /**\n     * Returns the latest price\n     */\n    function getThePrice() public view returns (int) {\n        (, int256 price, , , ) = priceFeed.latestRoundData();\n        return price;\n    }\n\n    /**\n     * Deposit the ether and get tokens\n     */\n    function deposit() public payable {\n        int256 price = getThePrice();\n\n        require(price > 0, \"The price is not negative\");\n        uint256 amount = msg.value / uint(price) * 1000;\n\n        _burn(admin, amount);\n        poolBalance += msg.value;\n        _mint(_msgSender(), amount);\n\n        emit Deposit(_msgSender(), msg.value);\n    }\n\n    /**\n     * Deposit the ether and get tokens\n     */\n    function withdraw() public {\n        uint256 amount = balanceOf(_msgSender());\n        uint256 ethers = amount * (poolBalance / totalSupply());\n\n        _burn(_msgSender(), amount);\n\n        (bool sent, ) = payable(_msgSender()).call{value: ethers}(\"\");\n        require(sent, \"Failed to send Ether\");\n        poolBalance -= ethers;\n        \n        _mint(admin, amount);\n\n        emit Withdraw(_msgSender(), ethers);\n    }\n\n    /**\n     * @dev Emitted when deposit ether to the pool\n     *\n     * Note that `value` may be zero.\n     */\n    event Deposit(address indexed from, uint256 value);\n\n    /**\n     * @dev Emitted when withdraw ether from the pool\n     *\n     * Note that `value` may be zero.\n     */\n    event Withdraw(address indexed to, uint256 value);\n}",
  "sourcePath": "/home/kevin/blockchain/Authentium-R-D/contracts/solidity/contracts/AuthentiumToken.sol",
  "compiler": {
    "name": "solc",
    "version": "0.8.0+commit.c7dfd78e.Emscripten.clang"
  },
  "schemaVersion": "3.4.3",
  "updatedAt": "2021-08-19T18:16:48.187Z",
  "networkType": "ethereum",
  "devdoc": {
    "events": {
      "Deposit(address,uint256)": {
        "details": "Emitted when deposit ether to the pool Note that `value` may be zero."
      },
      "Withdraw(address,uint256)": {
        "details": "Emitted when withdraw ether from the pool Note that `value` may be zero."
      }
    },
    "kind": "dev",
    "methods": {
      "allowance(address,address)": {
        "details": "See {IERC20-allowance}."
      },
      "approve(address,uint256)": {
        "details": "See {IERC20-approve}. Requirements: - `spender` cannot be the zero address."
      },
      "balanceOf(address)": {
        "details": "See {IERC20-balanceOf}."
      },
      "decimals()": {
        "details": "Returns the number of decimals used to get its user representation. For example, if `decimals` equals `2`, a balance of `505` tokens should be displayed to a user as `5.05` (`505 / 10 ** 2`)."
      },
      "decreaseAllowance(address,uint256)": {
        "details": "Atomically decreases the allowance granted to `spender` by the caller. This is an alternative to {approve} that can be used as a mitigation for problems described in {IERC20-approve}. Emits an {Approval} event indicating the updated allowance. Requirements: - `spender` cannot be the zero address. - `spender` must have allowance for the caller of at least `subtractedValue`."
      },
      "increaseAllowance(address,uint256)": {
        "details": "Atomically increases the allowance granted to `spender` by the caller. This is an alternative to {approve} that can be used as a mitigation for problems described in {IERC20-approve}. Emits an {Approval} event indicating the updated allowance. Requirements: - `spender` cannot be the zero address."
      },
      "name()": {
        "details": "Returns the name of the token."
      },
      "symbol()": {
        "details": "Returns the symbol of the token, usually a shorter version of the name."
      },
      "totalSupply()": {
        "details": "See {IERC20-totalSupply}."
      },
      "transfer(address,uint256)": {
        "details": "See {IERC20-transfer}. Requirements: - `recipient` cannot be the zero address. - the caller must have a balance of at least `amount`."
      },
      "transferFrom(address,address,uint256)": {
        "details": "See {IERC20-transferFrom}. Emits an {Approval} event indicating the updated allowance. This is not required by the EIP. See the note at the beginning of {ERC20}. Requirements: - `sender` and `recipient` cannot be the zero address. - `sender` must have a balance of at least `amount`. - the caller must have allowance for ``sender``'s tokens of at least `amount`."
      }
    },
    "version": 1
  },
  "userdoc": {
    "kind": "user",
    "methods": {
      "constructor": {
        "notice": "Network: Kovan Aggregator: ETH/USD Address: 0x9326BFA02ADD2366b30bacB125260Af641031331"
      },
      "deposit()": {
        "notice": "Deposit the ether and get tokens"
      },
      "getThePrice()": {
        "notice": "Returns the latest price"
      },
      "withdraw()": {
        "notice": "Deposit the ether and get tokens"
      }
    },
    "version": 1
  }
}